{
  "_format": "hh-sol-artifact-1",
  "contractName": "PublicResolver",
  "sourceName": "contracts/PublicResolver.sol",
  "abi": [
    {
      "inputs": [
        {
          "internalType": "contract ENS",
          "name": "_ens",
          "type": "address"
        }
      ],
      "stateMutability": "nonpayable",
      "type": "constructor"
    },
    {
      "anonymous": false,
      "inputs": [
        {
          "indexed": true,
          "internalType": "bytes32",
          "name": "node",
          "type": "bytes32"
        },
        {
          "indexed": false,
          "internalType": "address",
          "name": "a",
          "type": "address"
        }
      ],
      "name": "AddrChanged",
      "type": "event"
    },
    {
      "anonymous": false,
      "inputs": [
        {
          "indexed": true,
          "internalType": "bytes32",
          "name": "node",
          "type": "bytes32"
        },
        {
          "indexed": false,
          "internalType": "uint256",
          "name": "coinType",
          "type": "uint256"
        },
        {
          "indexed": false,
          "internalType": "bytes",
          "name": "newAddress",
          "type": "bytes"
        }
      ],
      "name": "AddressChanged",
      "type": "event"
    },
    {
      "anonymous": false,
      "inputs": [
        {
          "indexed": true,
          "internalType": "bytes32",
          "name": "node",
          "type": "bytes32"
        },
        {
          "indexed": false,
          "internalType": "string",
          "name": "name",
          "type": "string"
        }
      ],
      "name": "NameChanged",
      "type": "event"
    },
    {
      "anonymous": false,
      "inputs": [
        {
          "indexed": true,
          "internalType": "bytes32",
          "name": "node",
          "type": "bytes32"
        },
        {
          "indexed": true,
          "internalType": "string",
          "name": "indexedKey",
          "type": "string"
        },
        {
          "indexed": false,
          "internalType": "string",
          "name": "key",
          "type": "string"
        },
        {
          "indexed": false,
          "internalType": "string",
          "name": "value",
          "type": "string"
        }
      ],
      "name": "TextChanged",
      "type": "event"
    },
    {
      "anonymous": false,
      "inputs": [
        {
          "indexed": true,
          "internalType": "bytes32",
          "name": "node",
          "type": "bytes32"
        },
        {
          "indexed": false,
          "internalType": "uint64",
          "name": "newVersion",
          "type": "uint64"
        }
      ],
      "name": "VersionChanged",
      "type": "event"
    },
    {
      "inputs": [
        {
          "internalType": "bytes32",
          "name": "node",
          "type": "bytes32"
        }
      ],
      "name": "addr",
      "outputs": [
        {
          "internalType": "address payable",
          "name": "",
          "type": "address"
        }
      ],
      "stateMutability": "view",
      "type": "function"
    },
    {
      "inputs": [
        {
          "internalType": "bytes32",
          "name": "node",
          "type": "bytes32"
        },
        {
          "internalType": "uint256",
          "name": "coinType",
          "type": "uint256"
        }
      ],
      "name": "addr",
      "outputs": [
        {
          "internalType": "bytes",
          "name": "",
          "type": "bytes"
        }
      ],
      "stateMutability": "view",
      "type": "function"
    },
    {
      "inputs": [
        {
          "internalType": "bytes32",
          "name": "node",
          "type": "bytes32"
        }
      ],
      "name": "clearRecords",
      "outputs": [],
      "stateMutability": "nonpayable",
      "type": "function"
    },
    {
      "inputs": [
        {
          "internalType": "bytes32",
          "name": "node",
          "type": "bytes32"
        }
      ],
      "name": "name",
      "outputs": [
        {
          "internalType": "string",
          "name": "",
          "type": "string"
        }
      ],
      "stateMutability": "view",
      "type": "function"
    },
    {
      "inputs": [
        {
          "internalType": "bytes32",
          "name": "",
          "type": "bytes32"
        }
      ],
      "name": "recordVersions",
      "outputs": [
        {
          "internalType": "uint64",
          "name": "",
          "type": "uint64"
        }
      ],
      "stateMutability": "view",
      "type": "function"
    },
    {
      "inputs": [
        {
          "internalType": "bytes32",
          "name": "node",
          "type": "bytes32"
        },
        {
          "internalType": "uint256",
          "name": "coinType",
          "type": "uint256"
        },
        {
          "internalType": "bytes",
          "name": "a",
          "type": "bytes"
        }
      ],
      "name": "setAddr",
      "outputs": [],
      "stateMutability": "nonpayable",
      "type": "function"
    },
    {
      "inputs": [
        {
          "internalType": "bytes32",
          "name": "node",
          "type": "bytes32"
        },
        {
          "internalType": "address",
          "name": "a",
          "type": "address"
        }
      ],
      "name": "setAddr",
      "outputs": [],
      "stateMutability": "nonpayable",
      "type": "function"
    },
    {
      "inputs": [
        {
          "internalType": "bytes32",
          "name": "node",
          "type": "bytes32"
        },
        {
          "internalType": "string",
          "name": "newName",
          "type": "string"
        }
      ],
      "name": "setName",
      "outputs": [],
      "stateMutability": "nonpayable",
      "type": "function"
    },
    {
      "inputs": [
        {
          "internalType": "bytes32",
          "name": "node",
          "type": "bytes32"
        },
        {
          "internalType": "string",
          "name": "key",
          "type": "string"
        },
        {
          "internalType": "string",
          "name": "value",
          "type": "string"
        }
      ],
      "name": "setText",
      "outputs": [],
      "stateMutability": "nonpayable",
      "type": "function"
    },
    {
      "inputs": [
        {
          "internalType": "bytes4",
          "name": "interfaceID",
          "type": "bytes4"
        }
      ],
      "name": "supportsInterface",
      "outputs": [
        {
          "internalType": "bool",
          "name": "",
          "type": "bool"
        }
      ],
      "stateMutability": "view",
      "type": "function"
    },
    {
      "inputs": [
        {
          "internalType": "bytes32",
          "name": "node",
          "type": "bytes32"
        },
        {
          "internalType": "string",
          "name": "key",
          "type": "string"
        }
      ],
      "name": "text",
      "outputs": [
        {
          "internalType": "string",
          "name": "",
          "type": "string"
        }
      ],
      "stateMutability": "view",
      "type": "function"
    }
  ],
  "bytecode": "0x60a06040523480156200001157600080fd5b5060405162001c6a38038062001c6a8339818101604052810190620000379190620000f0565b8073ffffffffffffffffffffffffffffffffffffffff1660808173ffffffffffffffffffffffffffffffffffffffff16815250505062000122565b600080fd5b600073ffffffffffffffffffffffffffffffffffffffff82169050919050565b6000620000a48262000077565b9050919050565b6000620000b88262000097565b9050919050565b620000ca81620000ab565b8114620000d657600080fd5b50565b600081519050620000ea81620000bf565b92915050565b60006020828403121562000109576200010862000072565b5b60006200011984828501620000d9565b91505092915050565b608051611b2c6200013e6000396000610a340152611b2c6000f3fe608060405234801561001057600080fd5b50600436106100a95760003560e01c8063691f343111610071578063691f34311461017657806377372213146101a65780638b95dd71146101c2578063d5fa2b00146101de578063d700ff33146101fa578063f1cb7e061461022a576100a9565b806301ffc9a7146100ae57806310f13a8c146100de5780633603d758146100fa5780633b3b57de1461011657806359d1d43c14610146575b600080fd5b6100c860048036038101906100c39190610e1d565b61025a565b6040516100d59190610e65565b60405180910390f35b6100f860048036038101906100f39190610f1b565b61026c565b005b610114600480360381019061010f9190610fb0565b610369565b005b610130600480360381019061012b9190610fb0565b61043b565b60405161013d919061101e565b60405180910390f35b610160600480360381019061015b9190611039565b610470565b60405161016d9190611129565b60405180910390f35b610190600480360381019061018b9190610fb0565b610580565b60405161019d9190611129565b60405180910390f35b6101c060048036038101906101bb9190611039565b610670565b005b6101dc60048036038101906101d791906112b1565b610731565b005b6101f860048036038101906101f3919061135e565b61084a565b005b610214600480360381019061020f9190610fb0565b610876565b60405161022191906113c1565b60405180910390f35b610244600480360381019061023f91906113dc565b61089d565b6040516102519190611471565b60405180910390f35b60006102658261099f565b9050919050565b8461027681610a19565b61027f57600080fd5b8282600360008060008b815260200190815260200160002060009054906101000a900467ffffffffffffffff1667ffffffffffffffff1667ffffffffffffffff168152602001908152602001600020600089815260200190815260200160002087876040516102ef9291906114c3565b9081526020016040518091039020918261030a9291906116f3565b50848460405161031b9291906114c3565b6040518091039020867f448bc014f1536726cf8d54ff3d6481ed3cbc683c2591ca204274009afa09b1a18787878760405161035994939291906117f0565b60405180910390a3505050505050565b8061037381610a19565b61037c57600080fd5b600080838152602001908152602001600020600081819054906101000a900467ffffffffffffffff16809291906103b29061185a565b91906101000a81548167ffffffffffffffff021916908367ffffffffffffffff16021790555050817fc6621ccb8f3f5a04bb6502154b2caf6adf5983fe76dfef1cfc9c42e3579db44460008085815260200190815260200160002060009054906101000a900467ffffffffffffffff1660405161042f91906113c1565b60405180910390a25050565b60008061044983603c61089d565b9050600081510361045e57600091505061046b565b61046781610aea565b9150505b919050565b60606003600080600087815260200190815260200160002060009054906101000a900467ffffffffffffffff1667ffffffffffffffff1667ffffffffffffffff168152602001908152602001600020600085815260200190815260200160002083836040516104e09291906114c3565b908152602001604051809103902080546104f990611516565b80601f016020809104026020016040519081016040528092919081815260200182805461052590611516565b80156105725780601f1061054757610100808354040283529160200191610572565b820191906000526020600020905b81548152906001019060200180831161055557829003601f168201915b505050505090509392505050565b60606002600080600085815260200190815260200160002060009054906101000a900467ffffffffffffffff1667ffffffffffffffff1667ffffffffffffffff168152602001908152602001600020600083815260200190815260200160002080546105eb90611516565b80601f016020809104026020016040519081016040528092919081815260200182805461061790611516565b80156106645780601f1061063957610100808354040283529160200191610664565b820191906000526020600020905b81548152906001019060200180831161064757829003601f168201915b50505050509050919050565b8261067a81610a19565b61068357600080fd5b82826002600080600089815260200190815260200160002060009054906101000a900467ffffffffffffffff1667ffffffffffffffff1667ffffffffffffffff168152602001908152602001600020600087815260200190815260200160002091826106f09291906116f3565b50837fb7d29e911041e8d9b843369e890bcb72c9388692ba48b65ac54e7214c4c348f7848460405161072392919061188a565b60405180910390a250505050565b8261073b81610a19565b61074457600080fd5b837f65412581168e88a1e60c6459d7f44ae83ad0832e670826c05a4e2476b57af75284846040516107769291906118bd565b60405180910390a2603c83036107c757837f52d7d861f09ab3d26239d492e8968629f95e9e318cf0b73bfddc441522a15fd26107b184610aea565b6040516107be9190611942565b60405180910390a25b816001600080600088815260200190815260200160002060009054906101000a900467ffffffffffffffff1667ffffffffffffffff1667ffffffffffffffff16815260200190815260200160002060008681526020019081526020016000206000858152602001908152602001600020908161084391906119b8565b5050505050565b8161085481610a19565b61085d57600080fd5b61087183603c61086c85610b0d565b610731565b505050565b60006020528060005260406000206000915054906101000a900467ffffffffffffffff1681565b60606001600080600086815260200190815260200160002060009054906101000a900467ffffffffffffffff1667ffffffffffffffff1667ffffffffffffffff16815260200190815260200160002060008481526020019081526020016000206000838152602001908152602001600020805461091990611516565b80601f016020809104026020016040519081016040528092919081815260200182805461094590611516565b80156109925780601f1061096757610100808354040283529160200191610992565b820191906000526020600020905b81548152906001019060200180831161097557829003601f168201915b5050505050905092915050565b60007f59d1d43c000000000000000000000000000000000000000000000000000000007bffffffffffffffffffffffffffffffffffffffffffffffffffffffff1916827bffffffffffffffffffffffffffffffffffffffffffffffffffffffff19161480610a125750610a1182610b71565b5b9050919050565b60003373ffffffffffffffffffffffffffffffffffffffff167f000000000000000000000000000000000000000000000000000000000000000073ffffffffffffffffffffffffffffffffffffffff166302571be3846040518263ffffffff1660e01b8152600401610a8b9190611a99565b602060405180830381865afa158015610aa8573d6000803e3d6000fd5b505050506040513d601f19601f82011682018060405250810190610acc9190611ac9565b73ffffffffffffffffffffffffffffffffffffffff16149050919050565b60006014825114610afa57600080fd5b600c6101000a6020830151049050919050565b6060601467ffffffffffffffff811115610b2a57610b29611186565b5b6040519080825280601f01601f191660200182016040528015610b5c5781602001600182028036833780820191505090505b509050600c6101000a82026020820152919050565b60007f691f3431000000000000000000000000000000000000000000000000000000007bffffffffffffffffffffffffffffffffffffffffffffffffffffffff1916827bffffffffffffffffffffffffffffffffffffffffffffffffffffffff19161480610be45750610be382610beb565b5b9050919050565b60007f3b3b57de000000000000000000000000000000000000000000000000000000007bffffffffffffffffffffffffffffffffffffffffffffffffffffffff1916827bffffffffffffffffffffffffffffffffffffffffffffffffffffffff19161480610cb657507ff1cb7e06000000000000000000000000000000000000000000000000000000007bffffffffffffffffffffffffffffffffffffffffffffffffffffffff1916827bffffffffffffffffffffffffffffffffffffffffffffffffffffffff1916145b80610cc65750610cc582610ccd565b5b9050919050565b60007fd700ff33000000000000000000000000000000000000000000000000000000007bffffffffffffffffffffffffffffffffffffffffffffffffffffffff1916827bffffffffffffffffffffffffffffffffffffffffffffffffffffffff19161480610d405750610d3f82610d47565b5b9050919050565b60007f01ffc9a7000000000000000000000000000000000000000000000000000000007bffffffffffffffffffffffffffffffffffffffffffffffffffffffff1916827bffffffffffffffffffffffffffffffffffffffffffffffffffffffff1916149050919050565b6000604051905090565b600080fd5b600080fd5b60007fffffffff0000000000000000000000000000000000000000000000000000000082169050919050565b610dfa81610dc5565b8114610e0557600080fd5b50565b600081359050610e1781610df1565b92915050565b600060208284031215610e3357610e32610dbb565b5b6000610e4184828501610e08565b91505092915050565b60008115159050919050565b610e5f81610e4a565b82525050565b6000602082019050610e7a6000830184610e56565b92915050565b6000819050919050565b610e9381610e80565b8114610e9e57600080fd5b50565b600081359050610eb081610e8a565b92915050565b600080fd5b600080fd5b600080fd5b60008083601f840112610edb57610eda610eb6565b5b8235905067ffffffffffffffff811115610ef857610ef7610ebb565b5b602083019150836001820283011115610f1457610f13610ec0565b5b9250929050565b600080600080600060608688031215610f3757610f36610dbb565b5b6000610f4588828901610ea1565b955050602086013567ffffffffffffffff811115610f6657610f65610dc0565b5b610f7288828901610ec5565b9450945050604086013567ffffffffffffffff811115610f9557610f94610dc0565b5b610fa188828901610ec5565b92509250509295509295909350565b600060208284031215610fc657610fc5610dbb565b5b6000610fd484828501610ea1565b91505092915050565b600073ffffffffffffffffffffffffffffffffffffffff82169050919050565b600061100882610fdd565b9050919050565b61101881610ffd565b82525050565b6000602082019050611033600083018461100f565b92915050565b60008060006040848603121561105257611051610dbb565b5b600061106086828701610ea1565b935050602084013567ffffffffffffffff81111561108157611080610dc0565b5b61108d86828701610ec5565b92509250509250925092565b600081519050919050565b600082825260208201905092915050565b60005b838110156110d35780820151818401526020810190506110b8565b60008484015250505050565b6000601f19601f8301169050919050565b60006110fb82611099565b61110581856110a4565b93506111158185602086016110b5565b61111e816110df565b840191505092915050565b6000602082019050818103600083015261114381846110f0565b905092915050565b6000819050919050565b61115e8161114b565b811461116957600080fd5b50565b60008135905061117b81611155565b92915050565b600080fd5b7f4e487b7100000000000000000000000000000000000000000000000000000000600052604160045260246000fd5b6111be826110df565b810181811067ffffffffffffffff821117156111dd576111dc611186565b5b80604052505050565b60006111f0610db1565b90506111fc82826111b5565b919050565b600067ffffffffffffffff82111561121c5761121b611186565b5b611225826110df565b9050602081019050919050565b82818337600083830152505050565b600061125461124f84611201565b6111e6565b9050828152602081018484840111156112705761126f611181565b5b61127b848285611232565b509392505050565b600082601f83011261129857611297610eb6565b5b81356112a8848260208601611241565b91505092915050565b6000806000606084860312156112ca576112c9610dbb565b5b60006112d886828701610ea1565b93505060206112e98682870161116c565b925050604084013567ffffffffffffffff81111561130a57611309610dc0565b5b61131686828701611283565b9150509250925092565b600061132b82610fdd565b9050919050565b61133b81611320565b811461134657600080fd5b50565b60008135905061135881611332565b92915050565b6000806040838503121561137557611374610dbb565b5b600061138385828601610ea1565b925050602061139485828601611349565b9150509250929050565b600067ffffffffffffffff82169050919050565b6113bb8161139e565b82525050565b60006020820190506113d660008301846113b2565b92915050565b600080604083850312156113f3576113f2610dbb565b5b600061140185828601610ea1565b92505060206114128582860161116c565b9150509250929050565b600081519050919050565b600082825260208201905092915050565b60006114438261141c565b61144d8185611427565b935061145d8185602086016110b5565b611466816110df565b840191505092915050565b6000602082019050818103600083015261148b8184611438565b905092915050565b600081905092915050565b60006114aa8385611493565b93506114b7838584611232565b82840190509392505050565b60006114d082848661149e565b91508190509392505050565b600082905092915050565b7f4e487b7100000000000000000000000000000000000000000000000000000000600052602260045260246000fd5b6000600282049050600182168061152e57607f821691505b602082108103611541576115406114e7565b5b50919050565b60008190508160005260206000209050919050565b60006020601f8301049050919050565b600082821b905092915050565b6000600883026115a97fffffffffffffffffffffffffffffffffffffffffffffffffffffffffffffffff8261156c565b6115b3868361156c565b95508019841693508086168417925050509392505050565b6000819050919050565b60006115f06115eb6115e68461114b565b6115cb565b61114b565b9050919050565b6000819050919050565b61160a836115d5565b61161e611616826115f7565b848454611579565b825550505050565b600090565b611633611626565b61163e818484611601565b505050565b5b818110156116625761165760008261162b565b600181019050611644565b5050565b601f8211156116a75761167881611547565b6116818461155c565b81016020851015611690578190505b6116a461169c8561155c565b830182611643565b50505b505050565b600082821c905092915050565b60006116ca600019846008026116ac565b1980831691505092915050565b60006116e383836116b9565b9150826002028217905092915050565b6116fd83836114dc565b67ffffffffffffffff81111561171657611715611186565b5b6117208254611516565b61172b828285611666565b6000601f83116001811461175a5760008415611748578287013590505b61175285826116d7565b8655506117ba565b601f19841661176886611547565b60005b828110156117905784890135825560018201915060208501945060208101905061176b565b868310156117ad57848901356117a9601f8916826116b9565b8355505b6001600288020188555050505b50505050505050565b60006117cf83856110a4565b93506117dc838584611232565b6117e5836110df565b840190509392505050565b6000604082019050818103600083015261180b8186886117c3565b905081810360208301526118208184866117c3565b905095945050505050565b7f4e487b7100000000000000000000000000000000000000000000000000000000600052601160045260246000fd5b60006118658261139e565b915067ffffffffffffffff820361187f5761187e61182b565b5b600182019050919050565b600060208201905081810360008301526118a58184866117c3565b90509392505050565b6118b78161114b565b82525050565b60006040820190506118d260008301856118ae565b81810360208301526118e48184611438565b90509392505050565b60006119086119036118fe84610fdd565b6115cb565b610fdd565b9050919050565b600061191a826118ed565b9050919050565b600061192c8261190f565b9050919050565b61193c81611921565b82525050565b60006020820190506119576000830184611933565b92915050565b60008190508160005260206000209050919050565b601f8211156119b3576119848161195d565b61198d8461155c565b8101602085101561199c578190505b6119b06119a88561155c565b830182611643565b50505b505050565b6119c18261141c565b67ffffffffffffffff8111156119da576119d9611186565b5b6119e48254611516565b6119ef828285611972565b600060209050601f831160018114611a225760008415611a10578287015190505b611a1a85826116d7565b865550611a82565b601f198416611a308661195d565b60005b82811015611a5857848901518255600182019150602085019450602081019050611a33565b86831015611a755784890151611a71601f8916826116b9565b8355505b6001600288020188555050505b505050505050565b611a9381610e80565b82525050565b6000602082019050611aae6000830184611a8a565b92915050565b600081519050611ac381611332565b92915050565b600060208284031215611adf57611ade610dbb565b5b6000611aed84828501611ab4565b9150509291505056fea26469706673582212208dfb4c0a8ea0e61b4e99ce8a94d78cd7769840cbc8ff29835dfec86d7c49ccec64736f6c63430008180033",
  "linkReferences": {},
  "deployedLinkReferences": {}
}