{
  "_format": "hh-sol-artifact-1",
  "contractName": "Root",
  "sourceName": "contracts/root/Root.sol",
  "abi": [
    {
      "type": "constructor",
      "inputs": [
        {
          "name": "_ens",
          "internalType": "contract ENS",
          "type": "address"
        }
      ],
      "stateMutability": "nonpayable"
    },
    {
      "type": "event",
      "anonymous": false,
      "inputs": [
        {
          "name": "controller",
          "internalType": "address",
          "type": "address",
          "indexed": true
        },
        {
          "name": "enabled",
          "internalType": "bool",
          "type": "bool",
          "indexed": false
        }
      ],
      "name": "ControllerChanged"
    },
    {
      "type": "event",
      "anonymous": false,
      "inputs": [
        {
          "name": "previousOwner",
          "internalType": "address",
          "type": "address",
          "indexed": true
        },
        {
          "name": "newOwner",
          "internalType": "address",
          "type": "address",
          "indexed": true
        }
      ],
      "name": "OwnershipTransferred"
    },
    {
      "type": "event",
      "anonymous": false,
      "inputs": [
        {
          "name": "label",
          "internalType": "bytes32",
          "type": "bytes32",
          "indexed": true
        }
      ],
      "name": "TLDLocked"
    },
    {
      "type": "function",
      "inputs": [
        {
          "name": "",
          "internalType": "address",
          "type": "address"
        }
      ],
      "name": "controllers",
      "outputs": [
        {
          "name": "",
          "internalType": "bool",
          "type": "bool"
        }
      ],
      "stateMutability": "view"
    },
    {
      "type": "function",
      "inputs": [],
      "name": "ens",
      "outputs": [
        {
          "name": "",
          "internalType": "contract ENS",
          "type": "address"
        }
      ],
      "stateMutability": "view"
    },
    {
      "type": "function",
      "inputs": [
        {
          "name": "label",
          "internalType": "bytes32",
          "type": "bytes32"
        }
      ],
      "name": "lock",
      "outputs": [],
      "stateMutability": "nonpayable"
    },
    {
      "type": "function",
      "inputs": [
        {
          "name": "",
          "internalType": "bytes32",
          "type": "bytes32"
        }
      ],
      "name": "locked",
      "outputs": [
        {
          "name": "",
          "internalType": "bool",
          "type": "bool"
        }
      ],
      "stateMutability": "view"
    },
    {
      "type": "function",
      "inputs": [],
      "name": "owner",
      "outputs": [
        {
          "name": "",
          "internalType": "address",
          "type": "address"
        }
      ],
      "stateMutability": "view"
    },
    {
      "type": "function",
      "inputs": [],
      "name": "renounceOwnership",
      "outputs": [],
      "stateMutability": "nonpayable"
    },
    {
      "type": "function",
      "inputs": [
        {
          "name": "controller",
          "internalType": "address",
          "type": "address"
        },
        {
          "name": "enabled",
          "internalType": "bool",
          "type": "bool"
        }
      ],
      "name": "setController",
      "outputs": [],
      "stateMutability": "nonpayable"
    },
    {
      "type": "function",
      "inputs": [
        {
          "name": "resolver",
          "internalType": "address",
          "type": "address"
        }
      ],
      "name": "setResolver",
      "outputs": [],
      "stateMutability": "nonpayable"
    },
    {
      "type": "function",
      "inputs": [
        {
          "name": "label",
          "internalType": "bytes32",
          "type": "bytes32"
        },
        {
          "name": "owner",
          "internalType": "address",
          "type": "address"
        }
      ],
      "name": "setSubnodeOwner",
      "outputs": [],
      "stateMutability": "nonpayable"
    },
    {
      "type": "function",
      "inputs": [
        {
          "name": "interfaceID",
          "internalType": "bytes4",
          "type": "bytes4"
        }
      ],
      "name": "supportsInterface",
      "outputs": [
        {
          "name": "",
          "internalType": "bool",
          "type": "bool"
        }
      ],
      "stateMutability": "pure"
    },
    {
      "type": "function",
      "inputs": [
        {
          "name": "newOwner",
          "internalType": "address",
          "type": "address"
        }
      ],
      "name": "transferOwnership",
      "outputs": [],
      "stateMutability": "nonpayable"
    }
  ],
  "bytecode": "0x608060405234801561001057600080fd5b5060405161084638038061084683398101604081905261002f916100ad565b6100383361005d565b600280546001600160a01b0319166001600160a01b03929092169190911790556100dd565b600080546001600160a01b038381166001600160a01b0319831681178455604051919092169283917f8be0079c531659141344cd1fd0a4f28419497f9722a3daafe3b4186f6b6457e09190a35050565b6000602082840312156100bf57600080fd5b81516001600160a01b03811681146100d657600080fd5b9392505050565b61075a806100ec6000396000f3fe608060405234801561001057600080fd5b50600436106100c95760003560e01c80638cb8ecec11610081578063da8c229e1161005b578063da8c229e146101da578063e0dba60f146101fd578063f2fde38b1461021057600080fd5b80638cb8ecec146101935780638da5cb5b146101a6578063cbe9e764146101b757600080fd5b80633f15457f116100b25780633f15457f1461014d5780634e543b2614610178578063715018a61461018b57600080fd5b806301670ba9146100ce57806301ffc9a7146100e3575b600080fd5b6100e16100dc36600461060a565b610223565b005b6101386100f1366004610623565b7fffffffff00000000000000000000000000000000000000000000000000000000167f01ffc9a7000000000000000000000000000000000000000000000000000000001490565b60405190151581526020015b60405180910390f35b600254610160906001600160a01b031681565b6040516001600160a01b039091168152602001610144565b6100e1610186366004610688565b610271565b6100e16102fb565b6100e16101a13660046106a3565b61030f565b6000546001600160a01b0316610160565b6101386101c536600461060a565b60036020526000908152604090205460ff1681565b6101386101e8366004610688565b60016020526000908152604090205460ff1681565b6100e161020b3660046106cf565b610451565b6100e161021e366004610688565b6104b8565b61022b610548565b60405181907f1764176cfa565853ba1ded547a830a9f9bff95231ef6fd228b3ddd617577756990600090a26000908152600360205260409020805460ff19166001179055565b610279610548565b6002546040517f1896f70a000000000000000000000000000000000000000000000000000000008152600060048201526001600160a01b03838116602483015290911690631896f70a90604401600060405180830381600087803b1580156102e057600080fd5b505af11580156102f4573d6000803e3d6000fd5b5050505050565b610303610548565b61030d60006105a2565b565b3360009081526001602052604090205460ff166103995760405162461bcd60e51b815260206004820152602860248201527f436f6e74726f6c6c61626c653a2043616c6c6572206973206e6f74206120636f60448201527f6e74726f6c6c657200000000000000000000000000000000000000000000000060648201526084015b60405180910390fd5b60008281526003602052604090205460ff16156103b557600080fd5b6002546040517f06ab592300000000000000000000000000000000000000000000000000000000815260006004820152602481018490526001600160a01b038381166044830152909116906306ab5923906064016020604051808303816000875af1158015610428573d6000803e3d6000fd5b505050506040513d601f19601f8201168201806040525081019061044c919061070b565b505050565b610459610548565b6001600160a01b038216600081815260016020908152604091829020805460ff191685151590811790915591519182527f4c97694570a07277810af7e5669ffd5f6a2d6b74b6e9a274b8b870fd5114cf87910160405180910390a25050565b6104c0610548565b6001600160a01b03811661053c5760405162461bcd60e51b815260206004820152602660248201527f4f776e61626c653a206e6577206f776e657220697320746865207a65726f206160448201527f64647265737300000000000000000000000000000000000000000000000000006064820152608401610390565b610545816105a2565b50565b6000546001600160a01b0316331461030d5760405162461bcd60e51b815260206004820181905260248201527f4f776e61626c653a2063616c6c6572206973206e6f7420746865206f776e65726044820152606401610390565b600080546001600160a01b038381167fffffffffffffffffffffffff0000000000000000000000000000000000000000831681178455604051919092169283917f8be0079c531659141344cd1fd0a4f28419497f9722a3daafe3b4186f6b6457e09190a35050565b60006020828403121561061c57600080fd5b5035919050565b60006020828403121561063557600080fd5b81357fffffffff000000000000000000000000000000000000000000000000000000008116811461066557600080fd5b9392505050565b80356001600160a01b038116811461068357600080fd5b919050565b60006020828403121561069a57600080fd5b6106658261066c565b600080604083850312156106b657600080fd5b823591506106c66020840161066c565b90509250929050565b600080604083850312156106e257600080fd5b6106eb8361066c565b91506020830135801515811461070057600080fd5b809150509250929050565b60006020828403121561071d57600080fd5b505191905056fea26469706673582212206e3bf580396682875d86d35a1eea6c52d93dc01cd4f184e5bccd44c7571ae51f64736f6c63430008110033",
  "linkReferences": {},
  "deployedLinkReferences": {}
}